{
  "_format": "hh-sol-artifact-1",
  "contractName": "MediaShare",
  "sourceName": "contracts/MediaShare.sol",
  "abi": [
    {
      "inputs": [],
      "stateMutability": "nonpayable",
      "type": "constructor"
    },
    {
      "anonymous": false,
      "inputs": [
        {
          "indexed": true,
          "internalType": "address",
          "name": "from",
          "type": "address"
        },
        {
          "indexed": false,
          "internalType": "string",
          "name": "media",
          "type": "string"
        },
        {
          "indexed": false,
          "internalType": "uint256",
          "name": "timestamp",
          "type": "uint256"
        }
      ],
      "name": "NewMedia",
      "type": "event"
    },
    {
      "inputs": [],
      "name": "getAllMedias",
      "outputs": [
        {
          "components": [
            {
              "internalType": "address",
              "name": "sender",
              "type": "address"
            },
            {
              "internalType": "string",
              "name": "media",
              "type": "string"
            },
            {
              "internalType": "uint256",
              "name": "timestamp",
              "type": "uint256"
            }
          ],
          "internalType": "struct MediaShare.Media[]",
          "name": "",
          "type": "tuple[]"
        }
      ],
      "stateMutability": "view",
      "type": "function"
    },
    {
      "inputs": [],
      "name": "getTotalMedias",
      "outputs": [
        {
          "internalType": "uint256",
          "name": "",
          "type": "uint256"
        }
      ],
      "stateMutability": "view",
      "type": "function"
    },
    {
      "inputs": [
        {
          "internalType": "address",
          "name": "",
          "type": "address"
        }
      ],
      "name": "lastWavedAt",
      "outputs": [
        {
          "internalType": "uint256",
          "name": "",
          "type": "uint256"
        }
      ],
      "stateMutability": "view",
      "type": "function"
    },
    {
      "inputs": [
        {
          "internalType": "string",
          "name": "_media",
          "type": "string"
        }
      ],
      "name": "sendMedia",
      "outputs": [],
      "stateMutability": "nonpayable",
      "type": "function"
    }
  ],
  "bytecode": "0x60806040523480156200001157600080fd5b506200005d6040518060400160405280601981526020017f57652068617665206265656e20636f6e737472756374656421000000000000008152506200006360201b620003c21760201c565b620001f7565b62000103816040516024016200007a919062000170565b6040516020818303038152906040527f41304fac000000000000000000000000000000000000000000000000000000007bffffffffffffffffffffffffffffffffffffffffffffffffffffffff19166020820180517bffffffffffffffffffffffffffffffffffffffffffffffffffffffff83818316178352505050506200010660201b60201c565b50565b60008151905060006a636f6e736f6c652e6c6f679050602083016000808483855afa5050505050565b60006200013c8262000194565b6200014881856200019f565b93506200015a818560208601620001b0565b6200016581620001e6565b840191505092915050565b600060208201905081810360008301526200018c81846200012f565b905092915050565b600081519050919050565b600082825260208201905092915050565b60005b83811015620001d0578082015181840152602081019050620001b3565b83811115620001e0576000848401525b50505050565b6000601f19601f8301169050919050565b610bce80620002076000396000f3fe608060405234801561001057600080fd5b506004361061004c5760003560e01c8063385aa0db14610051578063836ead9c1461006d5780638bc1857a1461008b578063a42a4663146100a9575b600080fd5b61006b60048036038101906100669190610669565b6100d9565b005b610075610250565b6040516100829190610831565b60405180910390f35b6100936103a1565b6040516100a091906108d5565b60405180910390f35b6100c360048036038101906100be9190610640565b6103aa565b6040516100d091906108d5565b60405180910390f35b60016000808282546100eb91906109ac565b925050819055506101316040518060400160405280600e81526020017f25732068617320706f73746564210000000000000000000000000000000000008152503361045b565b600160405180606001604052803373ffffffffffffffffffffffffffffffffffffffff16815260200183815260200142815250908060018154018082558091505060019003906000526020600020906003020160009091909190915060008201518160000160006101000a81548173ffffffffffffffffffffffffffffffffffffffff021916908373ffffffffffffffffffffffffffffffffffffffff16021790555060208201518160010190805190602001906101f0929190610520565b506040820151816002015550503373ffffffffffffffffffffffffffffffffffffffff167f556e6cdc44c8e691bb55ff43f789f4052dd70c8ec1710ff81c4e2be2cafdb9c582426040516102459291906108a5565b60405180910390a250565b60606001805480602002602001604051908101604052809291908181526020016000905b8282101561039857838290600052602060002090600302016040518060600160405290816000820160009054906101000a900473ffffffffffffffffffffffffffffffffffffffff1673ffffffffffffffffffffffffffffffffffffffff1673ffffffffffffffffffffffffffffffffffffffff1681526020016001820180546102fd90610a80565b80601f016020809104026020016040519081016040528092919081815260200182805461032990610a80565b80156103765780601f1061034b57610100808354040283529160200191610376565b820191906000526020600020905b81548152906001019060200180831161035957829003601f168201915b5050505050815260200160028201548152505081526020019060010190610274565b50505050905090565b60008054905090565b60026020528060005260406000206000915090505481565b610458816040516024016103d69190610853565b6040516020818303038152906040527f41304fac000000000000000000000000000000000000000000000000000000007bffffffffffffffffffffffffffffffffffffffffffffffffffffffff19166020820180517bffffffffffffffffffffffffffffffffffffffffffffffffffffffff83818316178352505050506104f7565b50565b6104f38282604051602401610471929190610875565b6040516020818303038152906040527f319af333000000000000000000000000000000000000000000000000000000007bffffffffffffffffffffffffffffffffffffffffffffffffffffffff19166020820180517bffffffffffffffffffffffffffffffffffffffffffffffffffffffff83818316178352505050506104f7565b5050565b60008151905060006a636f6e736f6c652e6c6f679050602083016000808483855afa5050505050565b82805461052c90610a80565b90600052602060002090601f01602090048101928261054e5760008555610595565b82601f1061056757805160ff1916838001178555610595565b82800160010185558215610595579182015b82811115610594578251825591602001919060010190610579565b5b5090506105a291906105a6565b5090565b5b808211156105bf5760008160009055506001016105a7565b5090565b60006105d66105d184610915565b6108f0565b9050828152602081018484840111156105ee57600080fd5b6105f9848285610a3e565b509392505050565b60008135905061061081610b81565b92915050565b600082601f83011261062757600080fd5b81356106378482602086016105c3565b91505092915050565b60006020828403121561065257600080fd5b600061066084828501610601565b91505092915050565b60006020828403121561067b57600080fd5b600082013567ffffffffffffffff81111561069557600080fd5b6106a184828501610616565b91505092915050565b60006106b683836107c3565b905092915050565b6106c781610a02565b82525050565b6106d681610a02565b82525050565b60006106e782610956565b6106f18185610979565b93508360208202850161070385610946565b8060005b8581101561073f578484038952815161072085826106aa565b945061072b8361096c565b925060208a01995050600181019050610707565b50829750879550505050505092915050565b600061075c82610961565b610766818561098a565b9350610776818560208601610a4d565b61077f81610b70565b840191505092915050565b600061079582610961565b61079f818561099b565b93506107af818560208601610a4d565b6107b881610b70565b840191505092915050565b60006060830160008301516107db60008601826106be565b50602083015184820360208601526107f38282610751565b91505060408301516108086040860182610813565b508091505092915050565b61081c81610a34565b82525050565b61082b81610a34565b82525050565b6000602082019050818103600083015261084b81846106dc565b905092915050565b6000602082019050818103600083015261086d818461078a565b905092915050565b6000604082019050818103600083015261088f818561078a565b905061089e60208301846106cd565b9392505050565b600060408201905081810360008301526108bf818561078a565b90506108ce6020830184610822565b9392505050565b60006020820190506108ea6000830184610822565b92915050565b60006108fa61090b565b90506109068282610ab2565b919050565b6000604051905090565b600067ffffffffffffffff8211156109305761092f610b41565b5b61093982610b70565b9050602081019050919050565b6000819050602082019050919050565b600081519050919050565b600081519050919050565b6000602082019050919050565b600082825260208201905092915050565b600082825260208201905092915050565b600082825260208201905092915050565b60006109b782610a34565b91506109c283610a34565b9250827fffffffffffffffffffffffffffffffffffffffffffffffffffffffffffffffff038211156109f7576109f6610ae3565b5b828201905092915050565b6000610a0d82610a14565b9050919050565b600073ffffffffffffffffffffffffffffffffffffffff82169050919050565b6000819050919050565b82818337600083830152505050565b60005b83811015610a6b578082015181840152602081019050610a50565b83811115610a7a576000848401525b50505050565b60006002820490506001821680610a9857607f821691505b60208210811415610aac57610aab610b12565b5b50919050565b610abb82610b70565b810181811067ffffffffffffffff82111715610ada57610ad9610b41565b5b80604052505050565b7f4e487b7100000000000000000000000000000000000000000000000000000000600052601160045260246000fd5b7f4e487b7100000000000000000000000000000000000000000000000000000000600052602260045260246000fd5b7f4e487b7100000000000000000000000000000000000000000000000000000000600052604160045260246000fd5b6000601f19601f8301169050919050565b610b8a81610a02565b8114610b9557600080fd5b5056fea2646970667358221220873271e6839d8e380743cd5034c1a9a1f4844b81c6f9a04548ca34f605d6b2ef64736f6c63430008040033",
  "linkReferences": {},
  "deployedLinkReferences": {}
}