{
  "_format": "hh-sol-artifact-1",
  "contractName": "MediaShare",
  "sourceName": "contracts/MediaShare.sol",
  "abi": [
    {
      "inputs": [],
      "stateMutability": "nonpayable",
      "type": "constructor"
    },
    {
      "anonymous": false,
      "inputs": [
        {
          "indexed": true,
          "internalType": "address",
          "name": "from",
          "type": "address"
        },
        {
          "indexed": false,
          "internalType": "string",
          "name": "media",
          "type": "string"
        },
        {
          "indexed": false,
          "internalType": "uint256",
          "name": "timestamp",
          "type": "uint256"
        }
      ],
      "name": "NewMedia",
      "type": "event"
    },
    {
      "inputs": [],
      "name": "getAllMedias",
      "outputs": [
        {
          "components": [
            {
              "internalType": "uint256",
              "name": "id",
              "type": "uint256"
            },
            {
              "internalType": "address",
              "name": "sender",
              "type": "address"
            },
            {
              "internalType": "string",
              "name": "media",
              "type": "string"
            },
            {
              "internalType": "uint256",
              "name": "timestamp",
              "type": "uint256"
            }
          ],
          "internalType": "struct MediaShare.Media[]",
          "name": "",
          "type": "tuple[]"
        }
      ],
      "stateMutability": "view",
      "type": "function"
    },
    {
      "inputs": [
        {
          "internalType": "address",
          "name": "thanker",
          "type": "address"
        }
      ],
      "name": "getThanksByAddress",
      "outputs": [
        {
          "components": [
            {
              "internalType": "address",
              "name": "thanker",
              "type": "address"
            },
            {
              "internalType": "address",
              "name": "thanked",
              "type": "address"
            },
            {
              "internalType": "string",
              "name": "media",
              "type": "string"
            },
            {
              "internalType": "uint256",
              "name": "value",
              "type": "uint256"
            }
          ],
          "internalType": "struct MediaShare.Thanks[]",
          "name": "",
          "type": "tuple[]"
        }
      ],
      "stateMutability": "view",
      "type": "function"
    },
    {
      "inputs": [],
      "name": "getTotalMedias",
      "outputs": [
        {
          "internalType": "uint256",
          "name": "",
          "type": "uint256"
        }
      ],
      "stateMutability": "view",
      "type": "function"
    },
    {
      "inputs": [
        {
          "internalType": "string",
          "name": "_media",
          "type": "string"
        }
      ],
      "name": "sendMedia",
      "outputs": [],
      "stateMutability": "nonpayable",
      "type": "function"
    },
    {
      "inputs": [
        {
          "internalType": "uint256",
          "name": "_id",
          "type": "uint256"
        }
      ],
      "name": "thankMedia",
      "outputs": [],
      "stateMutability": "payable",
      "type": "function"
    },
    {
      "inputs": [
        {
          "internalType": "address",
          "name": "",
          "type": "address"
        },
        {
          "internalType": "uint256",
          "name": "",
          "type": "uint256"
        }
      ],
      "name": "thanks",
      "outputs": [
        {
          "internalType": "address",
          "name": "thanker",
          "type": "address"
        },
        {
          "internalType": "address",
          "name": "thanked",
          "type": "address"
        },
        {
          "internalType": "string",
          "name": "media",
          "type": "string"
        },
        {
          "internalType": "uint256",
          "name": "value",
          "type": "uint256"
        }
      ],
      "stateMutability": "view",
      "type": "function"
    }
  ],
  "bytecode": "0x60806040523480156200001157600080fd5b506200005d6040518060400160405280601981526020017f57652068617665206265656e20636f6e737472756374656421000000000000008152506200006360201b62000b471760201c565b620001f7565b62000103816040516024016200007a919062000170565b6040516020818303038152906040527f41304fac000000000000000000000000000000000000000000000000000000007bffffffffffffffffffffffffffffffffffffffffffffffffffffffff19166020820180517bffffffffffffffffffffffffffffffffffffffffffffffffffffffff83818316178352505050506200010660201b60201c565b50565b60008151905060006a636f6e736f6c652e6c6f679050602083016000808483855afa5050505050565b60006200013c8262000194565b6200014881856200019f565b93506200015a818560208601620001b0565b6200016581620001e6565b840191505092915050565b600060208201905081810360008301526200018c81846200012f565b905092915050565b600081519050919050565b600082825260208201905092915050565b60005b83811015620001d0578082015181840152602081019050620001b3565b83811115620001e0576000848401525b50505050565b6000601f19601f8301169050919050565b61178680620002076000396000f3fe6080604052600436106100555760003560e01c80630df734d31461005a578063385aa0db14610076578063836ead9c1461009f5780638bc1857a146100ca578063d67ba910146100f5578063f409d94314610135575b600080fd5b610074600480360381019061006f9190610f15565b610172565b005b34801561008257600080fd5b5061009d60048036038101906100989190610ed4565b610546565b005b3480156100ab57600080fd5b506100b46106e8565b6040516100c1919061128e565b60405180910390f35b3480156100d657600080fd5b506100df610843565b6040516100ec9190611394565b60405180910390f35b34801561010157600080fd5b5061011c60048036038101906101179190610e98565b61084c565b60405161012c9493929190611242565b60405180910390f35b34801561014157600080fd5b5061015c60048036038101906101579190610e6f565b610961565b60405161016991906112b0565b60405180910390f35b60008061017e83610be0565b9150915080156101c3576040517f08c379a00000000000000000000000000000000000000000000000000000000081526004016101ba90611354565b60405180910390fd5b6000600283815481106101ff577f4e487b7100000000000000000000000000000000000000000000000000000000600052603260045260246000fd5b9060005260206000209060040201604051806080016040529081600082015481526020016001820160009054906101000a900473ffffffffffffffffffffffffffffffffffffffff1673ffffffffffffffffffffffffffffffffffffffff1673ffffffffffffffffffffffffffffffffffffffff16815260200160028201805461028890611583565b80601f01602080910402602001604051908101604052809291908181526020018280546102b490611583565b80156103015780601f106102d657610100808354040283529160200191610301565b820191906000526020600020905b8154815290600101906020018083116102e457829003601f168201915b5050505050815260200160038201548152505090506000816020015190506000808273ffffffffffffffffffffffffffffffffffffffff16346040516103469061122d565b60006040518083038185875af1925050503d8060008114610383576040519150601f19603f3d011682016040523d82523d6000602084013e610388565b606091505b5091509150816103cd576040517f08c379a00000000000000000000000000000000000000000000000000000000081526004016103c490611374565b60405180910390fd5b600360003373ffffffffffffffffffffffffffffffffffffffff1673ffffffffffffffffffffffffffffffffffffffff16815260200190815260200160002060405180608001604052803373ffffffffffffffffffffffffffffffffffffffff1681526020018573ffffffffffffffffffffffffffffffffffffffff1681526020018660400151815260200134815250908060018154018082558091505060019003906000526020600020906004020160009091909190915060008201518160000160006101000a81548173ffffffffffffffffffffffffffffffffffffffff021916908373ffffffffffffffffffffffffffffffffffffffff16021790555060208201518160010160006101000a81548173ffffffffffffffffffffffffffffffffffffffff021916908373ffffffffffffffffffffffffffffffffffffffff1602179055506040820151816002019080519060200190610530929190610d3a565b5060608201518160030155505050505050505050565b600160008082825461055891906114af565b92505081905550600180600082825461057191906114af565b925050819055506105b76040518060400160405280600e81526020017f25732068617320706f737465642100000000000000000000000000000000000081525033610c75565b6002604051806080016040528060015481526020013373ffffffffffffffffffffffffffffffffffffffff1681526020018381526020014281525090806001815401808255809150506001900390600052602060002090600402016000909190919091506000820151816000015560208201518160010160006101000a81548173ffffffffffffffffffffffffffffffffffffffff021916908373ffffffffffffffffffffffffffffffffffffffff1602179055506040820151816002019080519060200190610688929190610d3a565b506060820151816003015550503373ffffffffffffffffffffffffffffffffffffffff167f556e6cdc44c8e691bb55ff43f789f4052dd70c8ec1710ff81c4e2be2cafdb9c582426040516106dd929190611324565b60405180910390a250565b60606002805480602002602001604051908101604052809291908181526020016000905b8282101561083a5783829060005260206000209060040201604051806080016040529081600082015481526020016001820160009054906101000a900473ffffffffffffffffffffffffffffffffffffffff1673ffffffffffffffffffffffffffffffffffffffff1673ffffffffffffffffffffffffffffffffffffffff16815260200160028201805461079f90611583565b80601f01602080910402602001604051908101604052809291908181526020018280546107cb90611583565b80156108185780601f106107ed57610100808354040283529160200191610818565b820191906000526020600020905b8154815290600101906020018083116107fb57829003601f168201915b505050505081526020016003820154815250508152602001906001019061070c565b50505050905090565b60008054905090565b6003602052816000526040600020818154811061086857600080fd5b9060005260206000209060040201600091509150508060000160009054906101000a900473ffffffffffffffffffffffffffffffffffffffff16908060010160009054906101000a900473ffffffffffffffffffffffffffffffffffffffff16908060020180546108d890611583565b80601f016020809104026020016040519081016040528092919081815260200182805461090490611583565b80156109515780601f1061092657610100808354040283529160200191610951565b820191906000526020600020905b81548152906001019060200180831161093457829003601f168201915b5050505050908060030154905084565b6060600360008373ffffffffffffffffffffffffffffffffffffffff1673ffffffffffffffffffffffffffffffffffffffff168152602001908152602001600020805480602002602001604051908101604052809291908181526020016000905b82821015610b3c57838290600052602060002090600402016040518060800160405290816000820160009054906101000a900473ffffffffffffffffffffffffffffffffffffffff1673ffffffffffffffffffffffffffffffffffffffff1673ffffffffffffffffffffffffffffffffffffffff1681526020016001820160009054906101000a900473ffffffffffffffffffffffffffffffffffffffff1673ffffffffffffffffffffffffffffffffffffffff1673ffffffffffffffffffffffffffffffffffffffff168152602001600282018054610aa190611583565b80601f0160208091040260200160405190810160405280929190818152602001828054610acd90611583565b8015610b1a5780601f10610aef57610100808354040283529160200191610b1a565b820191906000526020600020905b815481529060010190602001808311610afd57829003601f168201915b50505050508152602001600382015481525050815260200190600101906109c2565b505050509050919050565b610bdd81604051602401610b5b91906112d2565b6040516020818303038152906040527f41304fac000000000000000000000000000000000000000000000000000000007bffffffffffffffffffffffffffffffffffffffffffffffffffffffff19166020820180517bffffffffffffffffffffffffffffffffffffffffffffffffffffffff8381831617835250505050610d11565b50565b60008060005b600280549050811015610c66578360028281548110610c2e577f4e487b7100000000000000000000000000000000000000000000000000000000600052603260045260246000fd5b9060005260206000209060040201600001541415610c53578060009250925050610c70565b8080610c5e906115e6565b915050610be6565b5060006001915091505b915091565b610d0d8282604051602401610c8b9291906112f4565b6040516020818303038152906040527f319af333000000000000000000000000000000000000000000000000000000007bffffffffffffffffffffffffffffffffffffffffffffffffffffffff19166020820180517bffffffffffffffffffffffffffffffffffffffffffffffffffffffff8381831617835250505050610d11565b5050565b60008151905060006a636f6e736f6c652e6c6f679050602083016000808483855afa5050505050565b828054610d4690611583565b90600052602060002090601f016020900481019282610d685760008555610daf565b82601f10610d8157805160ff1916838001178555610daf565b82800160010185558215610daf579182015b82811115610dae578251825591602001919060010190610d93565b5b509050610dbc9190610dc0565b5090565b5b80821115610dd9576000816000905550600101610dc1565b5090565b6000610df0610deb846113d4565b6113af565b905082815260208101848484011115610e0857600080fd5b610e13848285611541565b509392505050565b600081359050610e2a81611722565b92915050565b600082601f830112610e4157600080fd5b8135610e51848260208601610ddd565b91505092915050565b600081359050610e6981611739565b92915050565b600060208284031215610e8157600080fd5b6000610e8f84828501610e1b565b91505092915050565b60008060408385031215610eab57600080fd5b6000610eb985828601610e1b565b9250506020610eca85828601610e5a565b9150509250929050565b600060208284031215610ee657600080fd5b600082013567ffffffffffffffff811115610f0057600080fd5b610f0c84828501610e30565b91505092915050565b600060208284031215610f2757600080fd5b6000610f3584828501610e5a565b91505092915050565b6000610f4a8383611149565b905092915050565b6000610f5e83836111ac565b905092915050565b610f6f81611505565b82525050565b610f7e81611505565b82525050565b6000610f8f82611425565b610f998185611460565b935083602082028501610fab85611405565b8060005b85811015610fe75784840389528151610fc88582610f3e565b9450610fd383611446565b925060208a01995050600181019050610faf565b50829750879550505050505092915050565b600061100482611430565b61100e8185611471565b93508360208202850161102085611415565b8060005b8581101561105c578484038952815161103d8582610f52565b945061104883611453565b925060208a01995050600181019050611024565b50829750879550505050505092915050565b60006110798261143b565b611083818561148d565b9350611093818560208601611550565b61109c816116bc565b840191505092915050565b60006110b28261143b565b6110bc818561149e565b93506110cc818560208601611550565b6110d5816116bc565b840191505092915050565b60006110ed60148361149e565b91506110f8826116cd565b602082019050919050565b600061111060148361149e565b915061111b826116f6565b602082019050919050565b6000611133600083611482565b915061113e8261171f565b600082019050919050565b6000608083016000830151611161600086018261120f565b5060208301516111746020860182610f66565b506040830151848203604086015261118c828261106e565b91505060608301516111a1606086018261120f565b508091505092915050565b60006080830160008301516111c46000860182610f66565b5060208301516111d76020860182610f66565b50604083015184820360408601526111ef828261106e565b9150506060830151611204606086018261120f565b508091505092915050565b61121881611537565b82525050565b61122781611537565b82525050565b600061123882611126565b9150819050919050565b60006080820190506112576000830187610f75565b6112646020830186610f75565b818103604083015261127681856110a7565b9050611285606083018461121e565b95945050505050565b600060208201905081810360008301526112a88184610f84565b905092915050565b600060208201905081810360008301526112ca8184610ff9565b905092915050565b600060208201905081810360008301526112ec81846110a7565b905092915050565b6000604082019050818103600083015261130e81856110a7565b905061131d6020830184610f75565b9392505050565b6000604082019050818103600083015261133e81856110a7565b905061134d602083018461121e565b9392505050565b6000602082019050818103600083015261136d816110e0565b9050919050565b6000602082019050818103600083015261138d81611103565b9050919050565b60006020820190506113a9600083018461121e565b92915050565b60006113b96113ca565b90506113c582826115b5565b919050565b6000604051905090565b600067ffffffffffffffff8211156113ef576113ee61168d565b5b6113f8826116bc565b9050602081019050919050565b6000819050602082019050919050565b6000819050602082019050919050565b600081519050919050565b600081519050919050565b600081519050919050565b6000602082019050919050565b6000602082019050919050565b600082825260208201905092915050565b600082825260208201905092915050565b600081905092915050565b600082825260208201905092915050565b600082825260208201905092915050565b60006114ba82611537565b91506114c583611537565b9250827fffffffffffffffffffffffffffffffffffffffffffffffffffffffffffffffff038211156114fa576114f961162f565b5b828201905092915050565b600061151082611517565b9050919050565b600073ffffffffffffffffffffffffffffffffffffffff82169050919050565b6000819050919050565b82818337600083830152505050565b60005b8381101561156e578082015181840152602081019050611553565b8381111561157d576000848401525b50505050565b6000600282049050600182168061159b57607f821691505b602082108114156115af576115ae61165e565b5b50919050565b6115be826116bc565b810181811067ffffffffffffffff821117156115dd576115dc61168d565b5b80604052505050565b60006115f182611537565b91507fffffffffffffffffffffffffffffffffffffffffffffffffffffffffffffffff8214156116245761162361162f565b5b600182019050919050565b7f4e487b7100000000000000000000000000000000000000000000000000000000600052601160045260246000fd5b7f4e487b7100000000000000000000000000000000000000000000000000000000600052602260045260246000fd5b7f4e487b7100000000000000000000000000000000000000000000000000000000600052604160045260246000fd5b6000601f19601f8301169050919050565b7f4d6564696120646f6573206e6f74206578697374000000000000000000000000600082015250565b7f4661696c656420746f2073656e64204574686572000000000000000000000000600082015250565b50565b61172b81611505565b811461173657600080fd5b50565b61174281611537565b811461174d57600080fd5b5056fea26469706673582212205c9f87cb1a9b54dfe75d87abbb6711d7a92bfdc9838580c9a19bc19d0b89db3664736f6c63430008040033",
  "linkReferences": {},
  "deployedLinkReferences": {}
}